:020000040800F2
:10000000385300205D020008A32B000805290008D2
:10001000A12B0008590D0008A13B000800000000BA
:100020000000000000000000000000009D0100082A
:10003000850E000800000000F901000821320008C8
:1000400077020008770200087702000877020008AC
:10005000770200087702000877020008770200089C
:10006000770200087702000877020008990D00085F
:10007000A50D0008B10D0008BD0D0008C90D000850
:10008000770200087702000877020008770200086C
:10009000770200087702000877020008770200085C
:1000A000770200087702000877020008770200084C
:1000B000770200087702000877020008770200083C
:1000C000770200087702000877020008770200082C
:1000D0007702000877020008770200086D3B0008ED
:1000E000870E0008770200087702000877020008F0
:1000F00005350008F934000877020008D50D00081E
:1001000077020008770200087702000877020008EB
:1001100079370008AD370008ED3400087702000891
:1001200077020008770200087702000877020008CB
:1001300077020008770200087702000877020008BB
:1001400077020008770200087702000877020008AB
:10015000770200087702000877020008770200089B
:10016000770200087702000877020008770200088B
:1001700077020008770200087702000800000000FC
:100180007702000877020008DFF80CD000F04AFB85
:10019000004800471D460008385300202C4B1968C2
:1001A0000868B0E8F04F80F30988BFF36F8F4FF015
:1001B000000080F3118870470000000008480068C4
:1001C000006880F308884FF0000080F3148862B65E
:1001D00061B6BFF34F8FBFF36F8F00DF00BF00BF6B
:1001E00008ED00E0DFF80C00016841F470010160E7
:1001F000704700BF88ED00E0EFF30980BFF36F8F19
:10020000134B1A681EF0100F08BF20ED108A20E96A
:10021000F04F106009B44FF0500080F31188BFF325
:100220004F8FBFF36F8F05F0A5FA4FF0000080F3FA
:10023000118809BC19680868B0E8F04F1EF0100F6B
:1002400008BFB0EC108A80F30988BFF36F8F704746
:1002500044000020EFF30580704700000648804707
:1002600006480047FEE7FEE7FEE7FEE7FEE7FEE79B
:10027000FEE7FEE7FEE7FEE7C93200088901000855
:100280002DE9F05F0546002092469B4688460646CB
:10029000814640241BE0284641464746224600F05E
:1002A0008EF853465A46C01A914110D3114618464B
:1002B000224600F075F82D1A67EB01084F462246DA
:1002C0000120002100F06CF817EB00094E41201EC0
:1002D000A4F10104DFDC484631462A464346BDE826
:1002E000F09F40EA01039B0703D009E008C9121FF1
:1002F00008C0042AFAD203E011F8013B00F8013BE0
:10030000521EF9D27047D2B201E000F8012B491E0B
:10031000FBD270470022F6E710B513460A460446A2
:100320001946FFF7F0FF204610BD30B505462A46B6
:100330000B4612F8010B13F8014B08B1A042F8D09C
:100340001CB1002802D06D1CF1E7284630BD00F03A
:10035000004230F000400AD0C10D01F56071C0F3D9
:10036000160042EA0151C2084007114370470020BD
:100370000146704730B50B4601460020202201247B
:1003800009E021FA02F59D4205D303FA02F5491B63
:1003900004FA02F52844151EA2F10102F1DC30BD79
:1003A000202A04DB203A00FA02F100207047914035
:1003B000C2F1200320FA03F3194390407047202A2A
:1003C00004DB203A21FA02F00021704721FA02F3FF
:1003D000D040C2F120029140084319467047000006
:1003E0000FB4002300B589B00CA900910B996FF0F0
:1003F0000042CB601E4B06931E4B07930423CDE9AE
:1004000001321D4A089202466B46002000F0B4FA01
:1004100009B05DF814FB70B586B006464FF0FF30AA
:100420000091CDE90101002015460C4604903246AA
:10043000694604A8FFF7D4FF03460498211825B1A4
:1004400008B10A4600E022462A6000280DD0002BA1
:1004500002DD0098884208D0081B0094CDE9010411
:100460003246694604A8FFF7BBFF06B070BD000026
:10047000B10B0008CF0B00086D0800082DE9FE4FF6
:10048000804681EA0300C00F0C46009021F0004135
:1004900023F00045B8EB0200A94105D240462146B1
:1004A00090461C460B46024623F00040104347D0BE
:1004B000270DC7F30A00C3F30A510290401A0190B6
:1004C00040286BDAC3F3130040F4801B0098924677
:1004D00020B10023D2EB030A63EB0B0B01985946C2
:1004E000C0F140025046FFF75BFF06460D465046FE
:1004F0005946019A00F0A8F910EB08006141002468
:1005000087EA115284EAE7731A4340D0009A62B333
:10051000019A012A4FEA075215DC001B61EB020128
:100520004FF0004202EA0752CDE90042001C41F5BB
:10053000801132462B4600F0A1FB03B0BDE8F08FDE
:1005400040462146F9E7001B61EB0201001C41F522
:10055000801300185B412018A2F5001747EB030138
:1005600040EAD570B6196D4111E06D084FEA3606C4
:1005700045EAC0754FEA0752001B61EB0201001CFF
:1005800041F5801149084FEA3000001951413246C7
:100590002B4603B0BDE8F04F00F061BB009801228C
:1005A00040000023D0EB020263EBE0730098214689
:1005B0004FEAE074B8EB000061EB0401E9E783F077
:1005C00000435BE781F0004158E72DE9FE4F81EAE7
:1005D000030404F0004421F0004100944FF0000BAC
:1005E00023F0004350EA01045ED052EA03045BD0DA
:1005F000C3F30A54C1F30A552C44A4F2F334019412
:10060000A0FB0254C1F3130141F48011C3F313039F
:1006100043F4801301FB024400FB034E840A970A53
:1006200044EA815447EA8357A4FB076802958D0A80
:1006300005FB07854FEA932C04FB0C542705029D0C
:100640004FEA065847EA1637B5EB08056EEB070C7C
:10065000870E920E47EA811742EA8312A7FB020136
:10066000B6EB0B0164EB00042B0D43EA0C335E1870
:1006700044EB1C50DA465146E7FB0201C5F3130474
:100680004FEA0B3343EA14534FEA0432019C43EA26
:100690000603A4F10C040294009CCDE900B400F020
:1006A000EDFA03B0BDE8F08F00200146F9E72DE92F
:1006B000F04D81EA030404F0004B21F0004514469C
:1006C0004FF0000A23F0004150EA050220D054EA1E
:1006D00001021DD0C5F30A570246C5F31303C1F347
:1006E0001300C1F30A5640F4801543F48013A7EBBE
:1006F0000608101BD64608F2FD3873EB050002D33E
:1007000008F1010801E092185B41B8F1000F03DA2B
:1007100000200146BDE8F08D00204FF48011064610
:1007200084460EE0171B73EB050705D3121B63EB22
:10073000050306434CEA010C49084FEA30009218C1
:100740005B4150EA0107EDD152EA030012D082EA80
:10075000040083EA0501084305D0101BAB4106D213
:100760000122002306E000224FF0004302E06FF078
:10077000010253101AEB06004CEB085110EB0A0073
:1007800041EB0B01BDE8F04D00F069BAC1F30A522C
:10079000C1F3130140F2FF3341F480119A4202DAAF
:1007A00000200146704740F233439A42A2F233429E
:1007B00002DC5242FFF703BEFFF7F2BD30B5041E64
:1007C00071F1000404DB4FF00044404264EB01018E
:1007D000141E73F1000405DB1C464FF00043524227
:1007E00063EB0403994208BF904230BD01F000431F
:1007F00030B421F0004150EA010206D00A0DA2F502
:100800006072C1F31301002A02DC30BC0020704783
:10081000440F44EAC104C100E01830BC00EBC250F0
:1008200000F0E6B9064C074D06E0E06840F0010331
:1008300094E8070098471034AC42F6D3FFF7A8FCC1
:100840003465000854650008202A06DBCB17203ADF
:1008500041FA02F043EAE07306E041FA02F3D040C5
:10086000C2F120029140084319467047C0B24FF4CC
:10087000F05100F051BA00002DE9FF4F087881B027
:100880009946FF2805D0491C2D2804D000240023B8
:1008900008E000230BE00124F9E703EB830300EBFE
:1008A0004303491C0878FF28F7D104B15B420020BC
:1008B0000090147801462D2C01D02B2C04D1521C11
:1008C0002D2C12D00024009400251678FF2E0ED077
:1008D0000A24A0FB04C801FB0481002700FB0711C8
:1008E000521C16EB0C006941EFE70124EBE7994439
:1008F00050EA01020ED00024AA4D2646DFF8A88255
:1009000000F01EFA82468B46B9F1000009DAC9F1FF
:1009100000071BE001980021C0E9001105B0BDE807
:10092000F08F074612E0F80707D022462B463046E4
:100930004146FFF74AFE0646884622462B461046A9
:100940001946FFF742FE04460D467F10002FEAD1FC
:10095000B9F1000F324643465046594602DAFFF7D6
:10096000A6FE01E0FFF731FE009A0AB181F00041D6
:10097000019AC2E90001D1E72DE9FF4F1F468DB072
:10098000D7E901464FF0FF382E2045464FF00009C9
:100990000B90B9696D1C0E988847396A8246884762
:1009A0000028F6D1BAF1FF3F0AD024F4D064002E1B
:1009B00011DDBAF12B0F08D0BAF12D0F0BD102E0E7
:1009C000404611B0ABE744F48064B9696D1C0E98E1
:1009D00088478246761E6946600501D52D2000E0D5
:1009E0002B208DF8000001F1010B0DF1200809E02A
:1009F000B9696D1C0E98884782460F9844F40074BC
:100A0000761E0560002E02DDBAF1300FF0D00B9992
:100A10008A453ED144F0800406E00F99681CA9F194
:100A2000010944F400740860B9696D1C761E0E98C3
:100A3000884782463028F0D02BE00B998A4505D1B3
:100A4000200603D444F08004761E18E0504603F0DC
:100A5000BDF908B30DF11301761E44F400748B4503
:100A600008D2AAF130000BF8010B200607D5A9F136
:100A7000010003E0200602D409F101008146A0052F
:100A800002D50F99681C0860B9696D1C0E988847DB
:100A90008246002ED1DC53E0002E51DDBAF1650F05
:100AA00002D0BAF1450F4BD1A00549D5B9696D1CEB
:100AB00024F44074761E0E9888478246002E0CDD82
:100AC0002B2804D0BAF12D0F07D144F48074B969F2
:100AD0006D1C0E9888478246761EE00501D52D21B3
:100AE00000E02B2108F8011BCDF82C8021E00DF14E
:100AF0002901761E44F4007488450CD2AAF1300016
:100B000010F0FF0088F8000002D10B99884509D940
:100B100008F1010806E0E00501D5244801E042F2B1
:100B20000F708146B9696D1C0E98884782460F98F0
:100B30000560002E04DD504603F048F90028D6D1A8
:100B4000F9690E988847FF208BF8000088F80000AC
:100B50000020069007904B466A4608A906A8FFF7B2
:100B60008BFEA00502D46FF001002AE714F0240FD9
:100B70000AD0E00714D1DDE906123868031D3B6096
:100B80000068C0E900120BE0DDE90601FFF72EFE68
:100B90000146E00704D13868021D3A600068016030
:100BA00028460EE7000024400000F03FF1D8FFFF88
:100BB000426842B1016811F8013B23B1521EC0E9FD
:100BC0000012184670470121C160881E70474268B4
:100BD0005AB1C368016843B983688B4205D0491E86
:100BE000521CC0E90012002070474FF0FF307047E0
:100BF0000029A8BF7047401C490008BF20F0010031
:100C0000704710B4B0FA80FC00FA0CF050EA01040E
:100C100004BF10BC704749B1CCF1200421FA04F4A0
:100C200011FA0CF118BF012121430843A3EB0C0179
:100C3000CB1D4FEA00614FEA102042BF002010BCDC
:100C4000704700EBC35010440029A4BF10BC70478C
:100C5000401C490008BF20F0010010BC704710B5CF
:100C6000141E73F1000408DA401C41F100019218CF
:100C70005B411A4301D120F0010010BD2DE9F04D78
:100C800092469B4611B1B1FA81F202E0B0FA80F2CD
:100C900020329046FFF784FB04460F4640EA0A00E4
:100CA00041EA0B0153465A46084313D0114653EA12
:100CB000010019D0C8F140025046FFF780FB0546FD
:100CC0000E46504659464246FFF76AFB084305D098
:100CD000012004E020463946BDE8F08D00200543A0
:100CE00046EAE0762C4337430A986305E40AA0EB12
:100CF00008000022FD0A44EA47540A3002D50020C9
:100D00000146E9E7010510196941DDE908450019C7
:100D10006941BDE8F04DA2E77F2801D9002208E033
:100D2000064A02EB5002C007127800D1120902F005
:100D30000F0201209040084070470000DC6400086A
:100D40000EB540F2334202920022CDE90022134652
:100D5000FFF794FF03B000BDFEE70000064810B5A2
:100D60004068212805D305A10A4803F083FD01202E
:100D700010BD002010BD0000D0000020496E76613B
:100D80006C69642054454D504320636F6D6D616EF6
:100D9000642100007C010020014800F00BB9000034
:100DA0005C030020014800F005B900001C0400208D
:100DB000014800F0FFB800003C020020014800F0AC
:100DC000F9B80000BC030020014800F0F3B80000AF
:100DD0009C020020014800F0EDB80000FC02002059
:100DE00001681823CAB2103AB2FBF3F2054B6FF355
:100DF0000901032A9B5CC36500D9091D816508466A
:100E000070470000BC64000810B5014600208B69E3
:100E10008A6A4FF0C07453B1B3F5005F15D072B158
:100E2000012A0CD0022A0AD0032A09D104E01AB1FF
:100E3000012A06D0022A03D1C96AC90100D50120BE
:100E400010BDC96AA142FAD010BD002AF7D0012A0C
:100E5000F2D0022AF3D0032AF3D010BD30B50468D3
:100E6000256825F480252560046863608368402B2D
:100E7000036803D099600068C26030BD9A60006862
:100E8000C16030BD704710B54FF4806000F050FA7B
:100E90004FF4006000F04CFA4FF4804000F048FA44
:100EA000BDE810404FF4004000F042BA72B6FEE7D1
:100EB00010B5040002D0607910B106E0012010BD29
:100EC00000202071204600F005F80120607100200C
:100ED00010BD000008B500680649884208D10648E0
:100EE000016841F480510160006800F48050009076
:100EF00008BD000000300240303802402DE9F041CA
:100F00000446876D00F006FB064694F83500002580
:100F1000022806D08020606584F834500120BDE8A6
:100F2000F0812068016821F01601016020684169A4
:100F300021F080014161206C08B9A06C20B12068CB
:100F4000016821F0080101602068016821F00101B9
:100F500001600BE000F0DEFA801B052806D9202096
:100F6000606504F8345F03206070D8E7206800688B
:100F7000C007EFD194F85C103F208840B86004F8B7
:100F8000345F012060700020C9E790F83510022915
:100F900003D08021416501207047052180F835107C
:100FA0000068016821F00101016000207047406D78
:100FB000704700002DE9F84304464FF00009CDF8D2
:100FC000009063484FF41651A56D0068B0FBF1F72F
:100FD0002E6894F85C10082000FA01F131420FD01D
:100FE00021680A6852070BD50A6822F004020A60D9
:100FF00094F85C108840A860606D40F00100606566
:1010000094F85C104FF0010808FA01F0304208D063
:1010100021684969090604D5A860606D40F00200A6
:10102000606594F85C1004208840304208D0216844
:101030000968890704D5A860606D40F00400606508
:1010400094F85C1010208840304218D0216809685C
:10105000090714D5A86020680168490304D5006811
:10106000000308D5A16C07E00168C90503D4016835
:1010700021F008010160216C09B12046884794F8ED
:101080005C1020208840304231D021680968C906B0
:101090002DD5A86094F8350005282068016806D091
:1010A000490347D5006800031DD4616C1CE021F0A2
:1010B000160101602068416921F080014161206CC6
:1010C00008B9A06C20B12068016821F00801016016
:1010D00094F85C103F208840A86084F8349084F82D
:1010E0003580216D1FE0E16B09B120468847606DB6
:1010F00000282BD0606DC00714D0052084F835007F
:101100002068016821F0010101600098401C0090F6
:10111000B84203D820680068C007F6D184F834903C
:1011200084F83580E16C002910D001B02046BDE87C
:10113000F04308470168C905D5D4016821F01001C2
:10114000016084F8349084F83580CCE7BDE8F883FA
:10115000400000202DE9F041044600F0DBF906468E
:101160005CB1002584F83450022084F835002068F2
:10117000016821F0010101600DE00120BDE8F0816E
:1011800000F0C8F9801B052805D9202060650320E0
:1011900084F83500F2E720680068C007F0D12268C3
:1011A000116820480140D4E901031843D4E903360B
:1011B0003343184363691843A3691843E369184329
:1011C000236A18430843616A042903D1D4E90B1345
:1011D00019430843106020684069666A20F00701DF
:1011E00030460E43012704280CD1A06A0643E06A6A
:1011F00040B12046FFF708FE20B14020606584F82A
:101200003570BAE7206846612046FFF7E9FD94F89B
:101210005C203F2191408160656584F83570002035
:10122000ACE700003F8010F02DE9F0410446866DE8
:1012300090F83400002501280DD0012084F83400F6
:1012400094F835700020012F07D084F8340002256F
:101250002846BDE8F0810220FBE7022784F83570BC
:1012600060652046FFF7FAFD94F85C103F20884047
:10127000B0602068016841F016010160206C20B167
:101280002068016841F0080101602068016841F0B0
:1012900001010160DCE700002DE9F041214F224C03
:1012A000DFF87CC002230026204DBA69E168B0F562
:1012B000806F03D0B0F5006F12D022E00120CCF88F
:1012C00084022371A2610868C16841F00101C16014
:1012D000D4E9030100F07AFE287840F001000FE025
:1012E000CCF884622371A2610868C16841F00101F1
:1012F000C160D4E9030100F069FE287840F00200E3
:1013000028702878032808D12E700520B861A061C4
:10131000BDE8F041282000F07BB9BDE8F081000075
:1013200000004142804E00209C4E0020BC00002066
:10133000044910B50A68024202D00860FFF7ACFF0A
:1013400010BD0000143C01402DE9F84F00224FF081
:10135000010803254FF00F0E0B6808FA02F4234032
:10136000A3426ED14E68012E05D0022E03D0112E5D
:1013700001D0122E12D186684FEA420C05FA0CF702
:10138000BE43CF6807FA0CF7374387604668A64329
:101390000C79C4F30014944034434460C668570089
:1013A00005FA07FC8C6826EA0C06BC403443C4608E
:1013B0004C68022C01D0122C13D1D40800EB840409
:1013C000A346D4F8209054074FEAD46A0EFA0AF6DE
:1013D00029EA06090E6906FA0AF646EA0906CBF872
:1013E000206006680C7926EA0C0604F00304BC4071
:1013F000344304604C68E40065D5364C266846F4F6
:1014000080462660246822F0030604F48044009499
:10141000314C3444A446D4F808489607370F0EFAE6
:1014200007F6B4432D4EB04201D1002624E02C4EE5
:10143000B04201D101261FE02A4EB04202D102265D
:101440001AE040E0284EB04201D1032614E0274EB6
:10145000B04201D104260FE0254EB04201D105264D
:101460000AE0244EB04201D1062605E0224EB042E9
:1014700001D1072600E00826BE402643CCF80868C4
:101480001E4E34684F689C43FF0300D51C433460F4
:101490001A4C241D26684F689E43BF0300D51E4387
:1014A0002660164E083634684F689C43FF0200D50C
:1014B0001C433460114E0C3634684F689C43BF02A5
:1014C00000D51C433460521C102AFFF445AFBDE820
:1014D000F88F000044380240003001400000024014
:1014E0000004024000080240000C024000100240CC
:1014F0000014024000180240001C0240003C014061
:101500000069084000D0012070470AB1816170472E
:101510000904FBE7014880687047000034000020A0
:1015200002488168027811448160704734000020CD
:101530000B4810B5016841F400710160016841F485
:1015400080610160016841F480710160032000F056
:101550009DF8002000F006F800F03EF8002010BDD5
:10156000003C024010B5014688B00022362000F051
:101570006DF8362000F05DF813480024016841F052
:1015800010010160006805A900F01000069068468F
:1015900000F028F900F046F90C490D4AB0FBF1F1D2
:1015A0000C48491E026040F2E732C0E90324C0E95A
:1015B000011400F039FB10B1012008B010BD05483E
:1015C00000F080FBF9E700004038024040420F0085
:1015D000001000402C0500200C4882B0016841F446
:1015E00080410160006800F4804000900748001FBF
:1015F000016841F0805101600068002200F08050D5
:1016000000900F21901E02B000F020B84438024034
:1016100000280DDB00F01F020121914040098000ED
:1016200000F1E020C0F88011BFF34F8FBFF36F8F40
:101630007047002809DB00F01F020121914040099A
:10164000800000F1E020C0F800117047F0B40E4BAC
:101650001B680C46C3F30223C3F10705042D00D910
:101660000425191D072901D2002300E0DB1E0126F5
:1016700006FA05F1491E214099409E40761E16400B
:101680003143F0BC02F0B4BA0CED00E0064900F0C2
:10169000070208684FF6FF03184040EA0220034A99
:1016A00010430860704700000CED00E00000FA05F0
:1016B0002DE9F0470E46050065D0DFF81481D8F813
:1016C0000000F7B200F00F00B04207D288F80070B7
:1016D000D8F8000000F00F00B04254D128683D4C0B
:1016E000810712D5400703D5206840F4E050206000
:1016F0002878000703D5206840F460402060206807
:10170000A96820F0F000084320602878C0072DD099
:10171000304968680839012812D0022813D00328FC
:1017200011D00968890700292DDA216821F0030109
:1017300001432160FFF7EEFE814641F2883A0EE058
:1017400009688903EFE709688901ECE7FFF7E2FE22
:10175000A0EB0901514502D90320BDE8F0872068BC
:10176000696800F00C00B0EB810FEFD1D8F80010E1
:10177000404601F00F01B14207D90770006800F040
:101780000F00B04201D00120E7E72878400705D5D7
:101790002068E96820F4E0500843206028780007BA
:1017A00006D52068296920F4604040EAC100206025
:1017B00000F058F82168084AC1F30311515CC84091
:1017C0000649086006480068FFF7CCFE0020C4E721
:1017D000003C024008380240C46400084000002079
:1017E000380000200F2202600C4A136803F0030344
:1017F0004360136803F0F0038360136803F4E0535D
:10180000C36012684FF4E05303EAD2020261044855
:10181000006800F00F0008607047000008380240C0
:10182000003C02400448054900680968044AC1F3C5
:101830008221515CC84070474000002008380240B7
:10184000D46400080448054900680968044AC1F3E3
:101850004231515CC84070474000002008380240C7
:10186000D4640008154810B5006810F00C02144844
:1018700013D01449042A0FD0082A0ED10F4C241F6C
:101880002268236802F03F025B0207D52068C0F39C
:101890008810A0FB010106E0084610BD2168C1F3D5
:1018A0008811A1FB00010023FEF7EAFC2168C1F3C7
:1018B0000141491C4900B0FBF1F010BD083802405D
:1018C0000024F40040787D012DE9F84F04006ED02B
:1018D0002078DFF83C93C007A9F104054AD009F14C
:1018E00004000168C1F38101012908D00068C0F338
:1018F000810002280AD1D9F80000400206D52868E4
:10190000800337D560680028E1D033E06068B0F527
:10191000803F10D0B0F5A02F286810D020F4803080
:101920002860286820F4802028606068A8B1FFF74C
:10193000F1FD06460DE0286840F48030F4E740F4FD
:1019400080202860F7E700BFFFF7E4FD801B6428D4
:1019500073D828688003F7D50CE0FFF7DBFD064657
:1019600005E000BFFFF7D6FD801B6428F0D828688B
:101970008003F7D42078DFF89C8280074FF0000ABC
:101980003ED5A348001D016811F00C0F08D0006877
:10199000C0F3810002280BD1D9F80000400207D41F
:1019A0002868800716D5E068012800D112E02BE1F5
:1019B000E068B8B10120C8F80000FFF7ABFD0646AB
:1019C00005E000BFFFF7A6FD801B0228C0D82868ED
:1019D0008007F7D52868216920F0F80040EAC100A7
:1019E00028600DE0C8F800A0FFF794FD064604E06B
:1019F000FFF790FD801B02281FD828688007F7D4C6
:101A00002078000722D5824E83486169703671B113
:101A100001210160FFF77EFD074604E0FFF77AFD34
:101A2000C01B022809D830688007F7D50EE0C0F83F
:101A300000A0FFF76FFD074605E082E0FFF76AFDB3
:101A4000C01B02287DD830688007F7D42078400773
:101A500068D5DFF8BCB100270BF13C0BDBF80000C8
:101A6000C0000BD4DBF8001041F08051CBF800101F
:101A7000DBF80000012700F080500090674E3068CE
:101A8000C00510D4306840F480703060FFF742FD2C
:101A9000009005E0FFF73EFD0099401A022850D85B
:101AA0003068C005F6D55A4EA0686C3601280FD0B4
:101AB0000528306810D020F001003060306820F038
:101AC00004003060A068B8B1FFF724FD00900FE07B
:101AD000306840F00100F4E740F004003060F7E7C0
:101AE000FFF718FD0099411A41F28830814266D80B
:101AF00030688007F4D50EE0FFF70CFD009007E09A
:101B0000FFF708FD0099411A41F28830814256D80A
:101B100030688007F4D42FB1DBF8001021F0805139
:101B2000CBF80010A069C8B33949091D0968C1F391
:101B3000810102294AD00228504607D0C8F8600027
:101B400000E03CE0FFF7E6FC04463BE04746C8F80F
:101B50006000FFF7DFFC064605E000BFFFF7DAFC98
:101B6000801B02282BD828688001F7D4D4E907010C
:101B70000843A16A2A4A490802EB0141626A41EA24
:101B80008211084394F82C1040EA0161C9F8001052
:101B900001203866FFF7BEFC044606E036E000BFD1
:101BA000FFF7B8FC001B022809D828688001F7D588
:101BB0002CE000BFFFF7AEFC001B022802D9032077
:101BC000BDE8F88F28688001F4D41FE00128F7D021
:101BD000D9F80000E26900F48001914214D1226A30
:101BE00000F03F0191420FD147F6C071626A014097
:101BF000914209D1A26A00F44031914204D1E16AD4
:101C000000F07060884201D00120D9E70020D7E7BA
:101C10000438024000004742800E474200700040F6
:101C20000000FFFF7047704710B5040003D094F820
:101C30003D0010B107E0012010BD002084F83C00F9
:101C4000204600F00DF8022084F83D00211D206898
:101C500001F05EFC012084F83D00002010BD000072
:101C600008B5154A0168154891420ED1016841F046
:101C7000800101600068002200F0800000900521D2
:101C80002C20FFF7E3FC2C2010E00D4A914211D1EB
:101C9000016841F4807101600068002200F48070E6
:101CA000009005212D20FFF7D1FC2D20BDE8084034
:101CB000FFF7BFBC08BD0000001C004040380240D8
:101CC000002000400168CA6842F00102CA60006852
:101CD000816801F00701062903D0016841F0010184
:101CE000016000207047704770B5044600680169C4
:101CF0004FF00005C943890715D4C168C943890756
:101D000011D4E91E016101202077206880698007D5
:101D1000204602D0FFF7E7FF04E000F0D1F82046AC
:101D200000F053F9257720680169C943490717D4A2
:101D3000C168C943490713D46FF00401016102204F
:101D400020772068806910F4407F204602D0FFF79A
:101D5000CAFF04E000F0B4F8204600F036F9257719
:101D600020680169C943090716D4C168C943090736
:101D700012D46FF008010161042020772068C06947
:101D80008007204602D0FFF7AEFF04E000F098F88D
:101D9000204600F01AF9257720680169C943C90671
:101DA00017D4C168C943C90613D46FF0100101618B
:101DB000082020772068C06910F4407F204602D0B8
:101DC000FFF791FF04E000F07BF8204600F0FDF8FB
:101DD000257720680169C943C90708D1C168C9438B
:101DE000C90704D1891E0161204600F03FF920682F
:101DF0000169C943090609D4C168C943090605D464
:101E00006FF0800101612046FFF70CFF2068016937
:101E1000C943490609D4C168C943490605D46FF0CE
:101E200040010161204600F097F920680169C9432B
:101E300089060BD4C168C943890607D46FF0200115
:101E400001612046BDE87040FFF7EDBE70BD0000A7
:101E500070B586B0044614216846FEF75BFA144E4E
:101E6000256800221349122309241348B54209D1D9
:101E70000D6845F001050D60096801F0010105914B
:101E800040210BE00D4EB54210D10D6845F0010523
:101E90000D60096801F00101059180210091CDE9F3
:101EA0000132CDE903246946FFF74EFA06B070BD52
:101EB000001C00403038024000000240002000407A
:101EC000704770B5044690F83C000D4601280DD0CF
:101ED000012684F83C60022084F83D0042B1042AC7
:101EE00018D0082A2AD00C2A4DD139E0022070BD22
:101EF000206801F07FFB2068816941F00801816161
:101F00002068816921F004018161206881692A6962
:101F1000114311E0206801F09DFB2068816941F4C4
:101F2000006181612068816921F48061816120689C
:101F300081692A6941EA0221816124E0206801F077
:101F4000BFFB2068C16941F00801C1612068C16917
:101F500021F00401C1612068C1692A69114311E0BF
:101F6000206801F0E1FB2068C16941F40061C161B2
:101F70002068C16921F48061C1612068C1692A6952
:101F800041EA0221C16184F83D60002084F83C00F0
:101F900070BD10B5040003D094F83D0010B107E007
:101FA000012010BD002084F83C00204600F00CF811
:101FB000022084F83D00211D206801F0A9FA0120CB
:101FC00084F83D00002010BD7047704710B50446EE
:101FD0000068012201F000FB0B492068884202D012
:101FE0000A49884203D1416C41F4004141642068B0
:101FF000816801F00701062903D0016841F0010161
:102000000160002010BD00000000014000040140FC
:1020100010B504460068002201F0DEFA114841F2D2
:10202000111221689310814202D00F48814209D1D8
:10203000086A104206D1086A184203D1486C20F49D
:10204000004048642068016A114206D1016A1942C1
:1020500003D1016821F001010160012084F83D00F5
:10206000002010BD00000140000401402DE9F05F98
:10207000064600683249884201D1FFF751FA314DD6
:102080003168314FE868DFF8C480314C00684FF0A8
:1020900001094FF0000A4FF0805B884223D1686944
:1020A000401C6861A96988421DDB30462969FFF739
:1020B000AFFF3068C16821F00101C16085F804906C
:1020C000207901280FD1C7F804A0391DD8F80000E5
:1020D00003F0A6FD786830B11E49C1F800B0BFF327
:1020E0004F8FBFF36F8FE06831680068884225D159
:1020F0006069401C6061A16988421FDB304621692C
:10210000FFF786FF3068C16821F00101C16084F8E3
:1021100004902879012811D10B49C7F804A0091DA2
:10212000D8F8000003F07CFD7868002806D0094943
:10213000C1F800B0BFF34F8FBFF36F8FBDE8F09FC2
:10214000001000409C4E0020BC0000200C0000202D
:10215000804E002004ED00E0704770B50446006832
:10216000C16821F49071C1602068416921F00101CA
:102170004161206841694FF0000549060FD541696A
:1021800021F040014161606B48B10565606BFEF76D
:10219000B5FE20B1606BFEF70AFF202805D0E5856B
:1021A000202084F83A00002070BD1020E063032056
:1021B00070BD704770B5026804461068D1685369F5
:1021C00010F00F0F53D003F0010501F490762E4369
:1021D0005FD0C20705D0CA0503D5E26B42F0010209
:1021E000E263420705D5DA0703D0E26B42F0020250
:1021F000E263820705D5DA0703D0E26B42F00402FE
:10220000E263020707D501F020022A4303D0E26B04
:1022100042F00802E263E26B002A34D0800604D563
:10222000880602D5204601F05EFB20684069E16B1C
:10223000C0F3801001F008010143204624D001F0D2
:102240003BFB2068416949061AD5416921F04001EC
:102250004161606BA0B11B490165606BFEF795FEA3
:10226000002810D0606B016DBDE870400847830600
:102270000FD58B060DD52046BDE8704001F033BB6D
:102280002046FFF796FF70BDFFF793FF0020E06345
:1022900070BD030606D50B0604D52046BDE8704088
:1022A00001F000BC4006F3D54806F1D5D1682046C0
:1022B00021F04001D160202184F8391000F0CEFADD
:1022C00070BD0000E137000870B5040004D094F838
:1022D0003900002510B106E0012070BD84F83850A7
:1022E000204600F023F8242084F839002068C168D3
:1022F00021F40051C160204601F040FB20680169D3
:1023000021F4904101612068416921F02A01416175
:102310002068C16841F40051C160E563202084F861
:10232000390084F83A00002070BD00002DE9F04F1C
:1023300087B0054614216846FDF7ECFF9E489E498C
:10234000DFF870821038D5F800C002220323002481
:102350004E0507154FF0010B4FF0080E4FF04009E6
:10236000C44558D1D1F800C0A2464CF4002CC1F8A5
:1023700000C0096801F400210591016841F00401E1
:1023800001600068694600F00400059098028DE83D
:102390000508CDE9033E8948FEF7D6FFDFF8248221
:1023A00087494046C8F80010C0E90164C0E9034706
:1023B000C8F81440C8F81840C8F81C40C8F82040B5
:1023C000C8F82440FEF7C6FE08B1FEF76FFD7C4852
:1023D0007D4CC5F834803030C8F8385084E841026C
:1023E000C4E903A7C4F814A0C4F818A0C4F81CA03A
:1023F000C4F820A02046C4F824A0FEF7ABFE08B124
:10240000FEF754FD2C6300220A213420A563FFF758
:102410001DF934206EE0DFF8B481C44570D1D1F8E5
:1024200000C04CF4801CC1F800C0096801F48011A0
:102430000591016841F004010160016801F00401A7
:102440000591016841F00801016000689A4600F0BA
:10245000080005904FF4805000900220CDE9010B58
:10246000CDE9033EF04669465448FEF76DFF04206F
:1024700000900220CDE9010BCDE903A8694654483C
:10248000FEF762FFDFF84C814D494046783188E81D
:102490004202C0E90347C8F81440C8F81840C8F819
:1024A0001C40C8F82040B946C8F82440FEF752FE48
:1024B00008B1FEF7FBFC4248474FC5F83080303882
:1024C000C8F838503860C7E90164C7E903497C613E
:1024D000BC61FC613C6238467C62FEF73BFE08B1A1
:1024E000FEF7E4FC6F6300220A213520BD63FFF78D
:1024F000ADF83520FFF79DF807B0BDE8F08FFFE796
:10250000DFF8D880C445F7D1D1F800C04CF4802C56
:10251000C1F800C0096801F480210591016841F00B
:10252000080101600068694600F0080005904FF45A
:1025300040708DE815000720CDE903302448FEF7F0
:1025400003FFDFF89C801E494046183188E84202AC
:10255000C0E90347C8F81440C8F81840C8F81C4040
:10256000C8F82040B946C8F82440FEF7F3FD08B18A
:10257000FEF79CFC12481B4FC5F830801838C8F88D
:1025800038503860C7E90164C7E903497C61BC6120
:10259000FC613C6238467C62FEF7DCFD08B1FEF768
:1025A00085FC6F6300220A212720BD63FFF74EF8E8
:1025B00027209FE7004C00404038024000080240BE
:1025C000406002403C0200209C020020005000407D
:1025D000000C0240FC0200205C0300200048004088
:1025E000BC0300201C040020F8B5044690F83A0013
:1025F00020283CD1C1B3BAB394F83800012836D0B2
:10260000012084F83800A162A2850025E56322201C
:1026100084F83A00636B1748D863636B16481864F4
:10262000636B1648D864606B134605650846666B95
:10263000216802463046091DFEF7F6FD2068016854
:102640004168009184F83850C16841F48071C160DC
:102650002068416941F0010141612068416941F010
:10266000400141610020F8BDFFE70120FBE70220A7
:10267000F9E700003B38000877380008F137000818
:102680002DE9F0411E4D04460020A8601D49206838
:102690001D4F4FF0805688420CD11C4805F10801AF
:1026A000006803F0BDFAA86820B13E60BFF34F8F09
:1026B000BFF36F8F1649206888420CD11548104926
:1026C0000831006803F0ACFAA86820B13E60BFF39F
:1026D0004F8FBFF36F8F1049206888420DD10F488C
:1026E00007490831006803F09BFAA868002804D065
:1026F0003E60BFF34F8FBFF36F8FBDE8F0810000E6
:10270000BC000020004C004004ED00E00800002068
:1027100000500040D800002000480040D0000020B9
:1027200070472DE9F843044690F839001F461646D5
:102730000D46202850D1B5B1AEB194F8380001282B
:102740004AD0012084F838004FF00008C4F83C80DB
:10275000212084F83900FEF7DDFEA6848146E68458
:1027600084F8388026E00120BDE8F883E08C401E24
:10277000E084A0684B46B0F5805F4FF000024FF058
:1027800080012046009703D001F0BDF9E8B90DE0C3
:1027900001F0B9F9C8B928882168C0F30800486079
:1027A000206908B16D1C05E0AD1C03E0216815F837
:1027B000010B4860E08C0028D8D14B460022402114
:1027C0002046009701F09FF908B10320CCE72020B4
:1027D00084F839000020C7E70220C5E770B5044639
:1027E00090F83900202830D169B362B394F83800EA
:1027F00001282AD0012084F838002162A284E284D2
:102800000025E563212084F83900236B1048D86344
:10281000236B10481864236B0F48D864206B134651
:1028200005652668206B321DFEF7FEFC21686FF0FF
:102830004000086084F838502068416941F0800108
:102840004161002070BD012070BD022070BD0000FC
:1028500081380008AF380008F137000810B50A4C7D
:10286000002004F10C01E0600848006803F0D8F98A
:10287000E068002807D006494FF080500860BFF399
:102880004F8FBFF36F8F10BDBC000020CC00002025
:1028900004ED00E010B504460068144988420ED1EA
:1028A00040211348FDF736FD12480068C16841F029
:1028B0001001C16040220E490E48FFF795FE0E49F7
:1028C0002068884210D120210C48FDF723FD0C48D8
:1028D0000068C16841F01001C160BDE810402022CD
:1028E00006490748FFF780BE10BD000000480040C1
:1028F000B84E0020FC01002000500040184F00207E
:10290000BC010020FEE700001D4808B5016841F445
:10291000001101600068002200F400100090052101
:102920000B20FEF793FE0B20FEF783FE002205210D
:102930000C20FEF78BFE0C20FEF77BFE002205210B
:102940000D20FEF783FE0D20FEF773FE0022052109
:102950000E20FEF77BFE0E20FEF76BFE0022052107
:102960000F20FEF773FE0F20FEF763FE0022052105
:102970002F20FEF76BFEBDE808402F20FEF759BE62
:10298000303802402DE9F04786B014216846FDF743
:10299000C1FC47480024016841F00401016001685E
:1029A00001F004010591016841F0800101600168B6
:1029B00001F080010591016841F0010101600168A9
:1029C00001F001010591016841F010010160016809
:1029D00001F010010591016841F0020101600168F8
:1029E00001F002010591016841F0080101600068F1
:1029F000DFF8C08000F00800059001220E2140465B
:102A0000FEF783FDDFF8B09001221C214846FEF757
:102A10007CFDDFF8A8A04FF47067002239465046CD
:102A2000FEF773FD0125CDE9005469464046029446
:102A3000FEF78AFC0E2000901126CDE9016469465C
:102A400040460394FEF780FC2320CDE9000469464C
:102A500048460294FEF778FC1C200090CDE9016402
:102A6000694648460394FEF76FFC0097CDE9015490
:102A7000694650460394FEF767FC114D4FF4404001
:102A8000CDE90005694602945046FEF75DFC4FF41F
:102A90004060CDE90005694602940A48FEF754FCFF
:102AA000002205212820FEF7D1FD06B0BDE8F08701
:102AB000303802400008024000000240001002408E
:102AC000000011100004024010B588B01C216846B7
:102AD000FDF720FC164815490024C0E9001440F217
:102AE0004731C0E90241802104618161FFF79CF810
:102AF00008B172B6FEE70E48FFF74BFA08B172B69E
:102B0000FEE7602000904FF4D27001900220029006
:102B10000022694604940648FFF7D3F908B172B65B
:102B2000FEE70348FFF794F908B010BD001C004011
:102B3000FC00002010B588B01C216846FDF7EAFBB8
:102B4000164815490024C0E9001440F24731C0E995
:102B5000024104618461FFF767F808B172B6FEE7CD
:102B60000E48FFF716FA08B172B6FEE76020009033
:102B70004FF4D27001900220029000226946049422
:102B80000648FFF79EF908B172B6FEE70348FFF763
:102B90005FF908B010BD0000002000403C0100209B
:102BA000FEE7FEE7134B10B519794CF250320020C6
:102BB00021B911491A60C3E9031058610D491C314C
:102BC0000C7924B90A600D4AC1E9032048610C4C14
:102BD000C4F888020122C4F88C22C4F89022094C5F
:102BE000C4F88402C4F88822C4F88C221A710A71CD
:102BF000002010BD804E00203C010020FC00002081
:102C000000004042000041422DE9F0412A4C227967
:102C1000012A04D104F11C052A79012A02D00220DC
:102C2000BDE8F0814FF4FA724718A0EB0106574354
:102C300006FB02F6214A4FF00000C2F888024FF06E
:102C4000010102D57F42C2F888121D4AC4E9050776
:102C5000C2F88402002E02DA7642C2F88412C5E974
:102C600005060220002F00DD2071002E00DD2871F6
:102C700002F078FD002F09DDE0680068C16841F0CE
:102C80000101C160D4E90301FFF7A0F9002E09DDBD
:102C9000E8680068C16841F00101C160D5E903013D
:102CA000FFF794F903F020FB06484FF0FF3100686E
:102CB00003F0A0F80020B3E7804E0020000040425F
:102CC000000041420C0000202DED028B0020DFF8B7
:102CD0003CB14F4E4F4D504C82B001218246BFEE69
:102CE000008A00BF05F8301005EBC002401C82EDE1
:102CF000018A1028F6DBDFF8209109F1A0092021D4
:102D00004548FDF707FBD9F80000C16841F0100104
:102D1000C1604149202201F1A000FFF765FC4FF09E
:102D2000FF31B06803F066F8A07805286CD2DFE8C0
:102D300000F00319232E5F00012000F0B3FB0220F6
:102D400000F0B0FB3549C1F8A0A2DBF800005F46F7
:102D500008B102F0F1FB324A0021324801F03AFD9D
:102D60003860CCE700236422E11C2F4808E02A48A1
:102D7000A03001F07FFDC2E7002364222B48E11C54
:102D8000006802F03FFE0028B9D129A1EFE7E07802
:102D900030B10128B3D1307838B386F800A0AEE75F
:102DA000012000F09FFA1A48183080ED000A022036
:102DB00000F098FA1648183080ED010A10EE100A5B
:102DC000FDF7C5FA07461248884618300068FDF737
:102DD000BEFA41EC100B1048CDE9007853EC102BF3
:102DE00018A1A03001F046FD89E700BF1AA1BEE797
:102DF00000202118C97805F8301005EBC001401CEF
:102E000081ED018A1028F4DB15A1B0E72C00002029
:102E100000000020AC040020DC0000200000424242
:102E200098640008712F000828000020240000206A
:102E300053746167652051756575652066756C6CA6
:102E40002100000054454D2530352E32665F253077
:102E5000352E32660D0A00004E4F4E0D0A0000005E
:102E600048656C6C6F210D0A0000000000220921EA
:102E7000042002F02BFD2F4C2F4E304DDFF8C08088
:102E8000DFF8C090DFF8C0A04FF0FF3BA0605A46CB
:102E90002949A06802F012FF307868B1012815D0E6
:102EA00002283DD0002089F804008AF80400C5F803
:102EB0008C02C8F88802EAE70120C5F88C02C8F83D
:102EC000880289F804008AF80400E0E71FA123487B
:102ED00001F0D0FC4FF400612148FEF711FB0128FE
:102EE00003D100211720FFF78FFE1E4F2820FEF789
:102EF000A0FB38463946FFF787FE0028F6D164204C
:102F000002F0AEFAFA210020FFF77EFE0028F9D188
:102F1000642002F0A5FA14A1104801F0ABFCB6E75A
:102F20006FF0B5014120FFF76FFE4FF47A7002F0A9
:102F300097FAACE720000020A004002000004042E7
:102F400000004142804E00209C4E00205761697471
:102F5000696E672E2E2E0D0A000000007C010020F5
:102F6000000402400180FFFF446F6E65210D0A00DE
:102F70002DED068B82B003220021012002F0A6FC79
:102F80009349032208600021012002F09FFC91492F
:102F9000002208600321012002F098FC8E49DFF82E
:102FA0003C820222486088F80020DFED8D9A41F2D1
:102FB0008832C8ED019A9FED8B0AC8F8142088ED7D
:102FC000020A47F230528B469FED87AA874C4FF09A
:102FD0007E55B6EE008A9FED869ADFF818A28946E4
:102FE000C8F818204FF0FF327B49DBF8040002F0EC
:102FF00065FE99F800004E4601280AD002287DD0CF
:1030000003287CD00428EDD15FF00000CAF8A002AC
:10301000E8E779A17B4801F02DFC0120CAF8A00265
:1030200000F01CFA022000F019FAF0EE4A8A0120A2
:10303000B0EE680A00F0CCF9B0EE680A022000F0A9
:10304000C7F9642002F00CFA94EC020A30EE200A70
:1030500020EE080A30EE680AB0EEC00A10EE100A40
:10306000A842EEDC684802F0FBF9F0EE698A012024
:10307000B0EE680A00F0ACF9B0EE680A022000F089
:10308000A7F9642002F0ECF994EC020A30EE200A71
:1030900020EE080A30EE680AB0EEC00A10EE100A00
:1030A000A842EEDC42F2107002F0DAF9B14637E0E5
:1030B000401EA9F80100002628E000BF08EB8607A3
:1030C0000120D7ED018AB0EE680A00F081F9B0EE78
:1030D000680A022000F07CF9642002F0C1F9D4ED06
:1030E000000A94ED010A30EE800A20EE080A30EE64
:1030F000680AB0EEC00A10EE100A01E015E065E0C3
:10310000A842E9DC786902F0ABF9761C98F8001067
:10311000B142D3DC02F036F83CA13A4801F0AAFBF8
:10312000B9F801000028C3D13DE033A1354801F0D2
:10313000A1FB0120CAF8A00200F090F9022000F0E3
:103140008DF9B0EE490A012000F042F9B0EE490ACB
:10315000022000F03DF94FF07C57642002F080F926
:1031600094EC020A30EE200A60EE080A30EEC90A3A
:10317000F0EEC00A10EE900AB842EEDC00270EE036
:1031800002F094FF009001F0FDFF20A11D4801F026
:1031900071FB4EF66021684602F088F97F1CB6F894
:1031A0000100B842ECDC012000F07CF9022000F0C4
:1031B00079F90020CAF8A00217A1124801F05AFBC1
:1031C000B6216FF04000FFF71FFD0BE701201DE760
:1031D000D8000020D0000020200000207C04002027
:1031E0000000BE4200007042000050421800002063
:1031F00000007C42000042425265635374610D0A34
:10320000000000007C010020E09304005265634F41
:103210007665720D0A000000446F6E65210D0A008C
:1032200010B5502080F31188BFF34F8FBFF36F8F1D
:1032300002F042FF18B104494FF0805008600020AE
:1032400080F3118810BD000004ED00E010B592B0CD
:1032500030216846FDF75EF814210CA8FDF75AF8F6
:1032600017480024016841F080510160006800F0B7
:10327000805011901348016841F48041016000685A
:10328000069400F4804011900220009001200390E9
:10329000102004906846FEF717FB08B172B6FEE7EF
:1032A0000F20CDE90C040E940F9400210CA810946B
:1032B000FEF7FEF9002801D072B6FEE712B010BD8D
:1032C00040380240007000400548016841F4700138
:1032D000016003494FF000608039086070470000CA
:1032E00088ED00E02DE9F041074620211448FDF764
:1032F00011F80024134E05E0142C03DD9FED120A93
:10330000BDE8F0813B4611A220210D4800F04AFCA7
:103310007060FDF723FD40B9094800F02BF808481C
:1033200010A14038FDF701F80546641C002DE3D0DC
:1033300005F10D00BDE8F041002100F069BC00007E
:10334000F84E0020D000002000000000544325313A
:10335000643A544341435455414C54454D503F0DFC
:1033600000000000544341435455414C54454D50D6
:103370003D00000070B506460024FDF7EFFCA0B14B
:10338000012070BD142C03DD152109A001F0C8F83F
:1033900031460D4801F06EFA1421641C286802F0D1
:1033A00029FD0028EED0002070BD084DF0E7000098
:1033B00054656D706320646973636F6E6E656374CA
:1033C0006564210D0A000000FC010020D0000020EF
:1033D00070B52DED028B82B0174D184CB0EE408ABF
:1033E0000646164820214030FCF794FF18EE100ADC
:1033F000FCF7ADFFCDE900011048334610A22021B3
:10340000403000F0CFFB6860FDF7A8FC0028E8D151
:103410000A484030FFF7AEFF0021605C3D2802D033
:10342000491C2029F9DB601840783128D9D102B035
:103430000020BDEC028B70BDD0000020B84E0020F3
:1034400054432531643A544341444A5553545445F6
:103450004D503D25352E32660D00000010B5044656
:1034600020210A48FCF756FF234609A220210748DD
:1034700000F098FB0A494860FDF770FC08B1012094
:1034800010BD0248FFF776FF002010BDF84E002067
:1034900054432531643A544353573D310D000000E5
:1034A000D000002010B5044620210A48FCF732FF66
:1034B000234609A22021074800F074FB0A4948600E
:1034C000FDF74CFC08B1012010BD0248FFF752FF88
:1034D000002010BDF84E002054432531643A544377
:1034E00053573D300D000000D00000200148FEF78A
:1034F000FBBB00002C0500200148FEF7F5BB0000D7
:103500003C0100200148FEF7EFBB0000FC0000205A
:10351000F0B50268254C264D264E274F274B4FF01D
:10352000804CA04209D0604507D0A84205D0B042E7
:1035300003D0B84201D0984204D122F0700E4A68FC
:1035400042EA0E02A0421BD0604519D0A84217D013
:10355000B04215D0B84213D0984211D0184DA842AD
:103560000ED0184DA8420BD0174DA84208D0174DC9
:10357000A84205D0164DA84202D0164DA84203D14C
:1035800022F44075CA682A434D6922F080022A431A
:1035900002608A68C2620A688262A04201D09842D0
:1035A00001D10969016301214161F0BD00000140C1
:1035B0000004004000080040000C004000040140EE
:1035C0000040014000440140004801400018004014
:1035D000001C00400020004010B501F01F03012135
:1035E000046A99408C430462016A9A401143016263
:1035F00010BD0000F0B5026A22F001020262036A07
:1036000042688469124E24F073050C682C4323F041
:1036100002058B682B430D4DA84201D0B04205D165
:1036200023F00807CB683B4323F00403A84201D0F2
:10363000B04205D14D6922F4407215438A692A438C
:1036400042608461496841630362F0BD000001404B
:1036500000040140F0B5026A22F010020262026A20
:10366000436884690D6824F4E64444EA05248D68BF
:1036700022F0200242EA05120F4D104EA84201D05E
:10368000B04206D1CF6822F0800242EA071222F04F
:103690004002A84201D0B04207D14D6923F44063F3
:1036A00043EA85038D6943EA850343608461496881
:1036B00081630262F0BD000000000140000401408F
:1036C000F0B5026A22F480720262026A4368C46939
:1036D00022F4007224F073050C68124E2C438D689E
:1036E00042EA05220E4DA84201D0B04206D1CF6871
:1036F00022F4006242EA072222F48062A84201D04A
:10370000B04207D14D6923F4405343EA05138D6954
:1037100043EA05134360C4614968C1630262F0BDB6
:10372000000001400004014030B5026A22F48052DA
:103730000262046A4268C3690D6823F4E64343EAFF
:1037400005238D6824F4005444EA0534084DA8424A
:1037500002D0084DA84204D14D6922F4804242EAC9
:1037600085124260C36149680164046230BD000093
:1037700000000140000401400B4808B500680168E2
:10378000C943C9060AD40168406800900648FEF79C
:10379000E4FCBDE808400448FEF772BFBDE80840FD
:1037A0000148FEF707BD00007C0100200B4808B56A
:1037B00000680168C943C9060AD4016840680090DE
:1037C0000648FEF7CAFCBDE808400448FEF758BFAB
:1037D000BDE808400148FEF7EDBC0000BC01002038
:1037E00010B5806B0021C185C184FEF7E2FC10BDDD
:1037F00070B5846B2068406994F83910C0F3C0102C
:103800000025212904D118B1E584204600F062F892
:103810002068406994F83A10C0F38010222904D13E
:1038200018B1E585204600F047F8E06B40F0100045
:10383000E0632046FEF7BDFC70BD10B50146806B0D
:1038400009680968C90513D40021C1850168CA68DF
:1038500022F48072CA6001684A6922F001024A615A
:1038600001684A6922F040024A61202180F83A103A
:10387000FEF706FF10BD10B5806BFEF751FF10BDBF
:1038800010B50146806B09680968C9050CD4002190
:10389000C18401684A6922F080024A610068C168F7
:1038A00041F04001C16010BDFEF7D8FF10BD10B55A
:1038B000806BFEF7EFFF10BD0168CA6822F49072BA
:1038C000CA6001684A6922F001024A61202180F839
:1038D0003A1070470168CA6822F0C002CA6020210D
:1038E00080F83910704710B590F83A10222901D0AD
:1038F000022010BD8168B1F5805F11D001690029F7
:1039000001681FD0496801F07F03816A4A1C826206
:103910000B70C18D491E0904090CC18518D02BE01C
:103920000269816A002A0268526805D0D2B20A8010
:10393000816A491C8162ECE7C2F308020A80816A4D
:10394000891CF7E74A68816A4B1C83620A70E0E7CA
:103950000168CA6822F02002CA600168CA6822F4BD
:103960008072CA6001684A6922F001024A6120211E
:1039700080F83A10FEF784FE002010BD2DE9F041DA
:10398000044600680169E26821F440511143016175
:103990002169A068E269084361691143084321680D
:1039A000CA6849F20C639A430243CA6020684169BD
:1039B000A26921F4407111434161E069192764252E
:1039C0003226B0F5004F354A354920684FF00008DF
:1039D00006D0884201D0904236D1FDF733FF35E062
:1039E000884201D0904202D1FDF72CFF01E0FDF7A3
:1039F00019FF61684A18A0FB070148EB0803FCF7B0
:103A00003FFC0146B0FBF5F00201B1FBF5F06FF0B1
:103A10001803584301EB800006EBC000B0FBF5F043
:103A200000F0F80002EB4002B1FBF5F0584301EB67
:103A3000800006EBC000B0FBF5F000F00700216845
:103A400010448860BDE8F081FDF7ECFE61688B0FE3
:103A50008A00A0FB0701FCF713FC0146B0FBF5F060
:103A60006FF01802504301EB800006EB0010B0FB32
:103A7000F5F000F0F002B1FBF5F002EB0012B1FB43
:103A8000F5F06FF01803584301EB800006EB0010CF
:103A9000B0FBF5F000F00F00D1E70000001401408A
:103AA0000010014090F83910212901D00220704700
:103AB0008168B1F5805F016A0BD04A1C026202681E
:103AC00009785160C18C491E0904090CC1840ED0CB
:103AD00017E009880268C1F30801516001690029F3
:103AE000016A02D0491C0162ECE7891CFBE701680E
:103AF000CA6822F08002CA600068C16841F04001D3
:103B0000C160002070472DE9F041984617460E46E7
:103B10000446069D1DE0681C1BD02DB1FDF7FAFC84
:103B2000A0EB0800A84214D92068C16821F4D07124
:103B3000C1602068416921F001014161202084F8C1
:103B4000390084F83A00002084F838000320BDE8EA
:103B5000F0812068006836EA000004D00020B842F6
:103B6000D9D00020F3E70120F9E700000B4808B5A1
:103B700000680168C943C9060AD40168406800901A
:103B80000648FEF7EAFABDE808400448FEF778BDAB
:103B9000BDE808400148FEF70DBB0000FC01002015
:103BA000FEE700000FB41CB50A46521ECDE9000224
:103BB00007A9054B6A46069800F010F9009A002103
:103BC00011701CBC5DF814FB0B4500087CB5491E48
:103BD0001C461546CDE90001044B6A46214628469D
:103BE00000F0FCF8009A002111707CBD0B45000824
:103BF0000907090E002804DB00F1E02080F800141A
:103C0000704700F00F0000F1E02080F8141D7047AD
:103C100000B583B09FED0A0B0A4601468DED000BFF
:103C20006846FCF7F8FB9DED000B51EC100BFCF720
:103C3000DDFD03B000EE100A00BD00000000000032
:103C4000000000000000000002E008C8121F08C1C8
:103C5000002AFAD170477047002001E001C1121F0D
:103C6000002AFBD1704700002DE9FF5FDDE902204B
:103C7000010DDDF838B0024318D044F61050A1F21F
:103C8000FF3141430D140F98012820D0A5EB0B0004
:103C9000401C5FEA000A4FF00004474EDFF81C9119
:103CA000A046504616D5CAF1000728E00F98012417
:103CB00043A2012808D0002100980F9BC0E90021F1
:103CC000C0E90243BDE8FF9F6FEA0B01F4E7CBF1C7
:103CD0000000DEE7074612E0F80707D02246334629
:103CE00040464946FCF771FC8046894622463346E9
:103CF00010461946FCF769FC04460E467F10002F5B
:103D0000EAD1DDE90201BAF1000F42464B4602DA80
:103D1000FCF75BFC01E0FCF7CAFC04460E460022FF
:103D2000284BFCF74BFD03D84FF0FF30014607E06E
:103D30000022254B20463146FCF7A0FBFCF726FD70
:103D4000102409E0002C0ADB0A220023FCF798FA71
:103D5000019B30321A55641E50EA0102F2D1641CF4
:103D6000019AC4F1110314440F9A012A03D00122CD
:103D700008430DD10AE0084304D000204FF0110B96
:103D80000F9080E7A3EB0B056D1E0DE05B4504DD96
:103D90004FF0000205F1010504E003DA4FF00002E4
:103DA000A5F10105002AECD000980F99C0E9023175
:103DB000C0E9004586E70000000024400000F03F15
:103DC000300000000000F0430000E03F30380A28D7
:103DD00001D2012070470020704700002DE9FF4FFD
:103DE00095B09B468946064600250FE2252877D1E7
:103DF00000242746F84A0121059400E0044316F800
:103E0000013F203B01FA03F01042F7D130782A2815
:103E100011D06FF02F033078A0F13002092A16D8A4
:103E2000059A44F0020402EB820203EB42021044C2
:103E3000761C0590EFE759F8042B0592002A03DA67
:103E4000504244F40054059044F00204761C30784B
:103E50002E2816D116F8010F44F004042A280DD09C
:103E60006FF02F023078A0F13003092B09D807EB4F
:103E7000870302EB4303C718761CF3E759F8047B6A
:103E8000761C30786C280FD006DC4C2817D06828B8
:103E90000DD06A2814D104E0742810D07A280FD1EC
:103EA0000DE044F400140AE044F4801401E044F40A
:103EB00040147278824202D104F58014761C761C7C
:103EC000307866280BD013DC582877D009DC00281E
:103ED00075D04528F6D04628F4D047281AD19DE160
:103EE00018E0632835D0642879D0652812D195E18F
:103EF000702873D008DC6728F1D069286FD06E284D
:103F00000DD06F2806D1B5E073282CD0752875D058
:103F1000782874D05A46179990476D1C75E1C4F300
:103F20000250022809D003280DD0D9F80010042827
:103F30000DD00D6009F1040967E1D9F80010EA1706
:103F4000C1E90052F6E7D9F800100D80F2E70D70D4
:103F5000F0E719F8041B8DF8001000208DF801001F
:103F6000EA46012003E059F804AB4FF0FF30610747
:103F70004FF0000102D40DE008F101018846B9427A
:103F80000FDA8045F8DB1AF808100029F4D108E0B0
:103F900008F1010188468142FADB1AF8081000296D
:103FA000F6D105985B46A0EB080721463846179ADC
:103FB00000F094FA284400EB080507E04DE029E101
:103FC0000DE01AF8010B5A4617999047B8F101080D
:103FD000F7D25B4621463846179A13E142E00A229F
:103FE0000092C4F302524FF0000A022A08D059F896
:103FF00004CB032A4FEAEC710AD00DE029E02AE055
:1040000009F1070121F00702F2E802C1914609E037
:104010000FFA8CFC4FEAEC71042A03D14FFA8CFCA6
:104020004FEAEC71002907DA0A460021DCF1000CA6
:1040300061EB02012D2202E0220504D52B228DF82E
:104040000420012203E0E20701D02022F7E7904696
:1040500059E00A2102E010220DE010214FF0000A81
:1040600000910BE010224FF0000A44F004040827EE
:10407000009203E008224FF0000A0092C4F30252BB
:10408000022A05D059F804CB0021032A08D009E000
:1040900009F1070121F00702F2E802C1914605E0AB
:1040A0001FFA8CFC042A01D10CF0FF0C4FF0000821
:1040B000220728D5702806D0009B83F0100353EA0E
:1040C0000A0305D00EE040228DF80420012208E00A
:1040D0005CEA010206D030228DF804208DF805003C
:1040E00002229046009B83F0080353EA0A030AD198
:1040F0005CEA010201D1620705D530228DF8042067
:104100004FF001087F1E582804D034A003900EA859
:1041100002900DE036A0F9E753466046009AFCF79E
:10412000AFF884460398825C0298401E02900270A9
:104130005CEA0100F0D1029806A9081A00F1200AF1
:10414000600702D524F4803400E00127574502DDE2
:10415000A7EB0A0000E0002000EB0A0100900598A0
:104160004144401A0590E00306D45B462146179A65
:10417000059800F0B3F90544002706E001A85A4667
:10418000C05D179990476D1C7F1C4745F6DBE00327
:104190000CD55B462146179A059800F09FF9054417
:1041A00004E030205A46179990476D1C0099481E2C
:1041B00000900029F5DC08E0029802995A46007840
:1041C000491C0291179990476D1CBAF10001AAF1A0
:1041D000010AF1DC65E100000928010030313233C9
:1041E0003435363738396162636465660000000033
:1041F000303132333435363738394142434445461D
:104200000000000000F058F90544761C30780028C2
:104210007FF4ECAD19B02846BDE8F08F620700D4FA
:10422000062709F1070222F0070CFCE80223E14609
:1042300003F000485FEA080C02D00FF2702C0DE08A
:104240005FEA045C02D50FF2682C07E05FEAC47CE9
:1042500002D00FF2602C01E0AFF2700C4FF0FF388B
:1042600023F00043CDF850C065280CD006DC45286B
:1042700009D046281DD047283DD13DE0662818D0FA
:1042800067287ED138E00021112F01DB112000E0EA
:10429000781CCDE9000106A90EA8FFF7E5FCDDE9D1
:1042A0000F010E9A03910021009207F1010A049177
:1042B0004DE04FF000400097CDE9011006A90EA88F
:1042C000FFF7D2FCDDE90F0203920E9B1199002249
:1042D000DDF80CA00093049211B9791C00EB010ADF
:1042E000B7EB0A0004D4C0F1FF3007F1010A0490D3
:1042F000AAEB0700019044E0012F00DA012700211A
:10430000112F01DD112000E03846CDE9000106A99A
:104310000EA8FFF7A9FCDDE90F010E9A0391002119
:1043200004910092BA4621070CD40399514500DA52
:104330008A46BAF1010F05DD009AAAF10101515C2C
:10434000302908D0B84202DA10F1040F06DA012150
:10435000CDE9011015E0AAF10101E9E7002805DC2B
:10436000049901440491AAEB000102E0411C51456B
:1043700000DD8A460499401A401C01904FF000402D
:104380000290200704D40198504501DBCDF8048049
:1043900000208DF84F0002980DF14F07B0F1004F4B
:1043A00025D02B200E9002984FF0020800280CDA3E
:1043B000404202902D200E9007E00A210298FBF760
:1043C000D9FF3031029007F8011DB8F10001A8F1C2
:1043D0000108F2DC02980028EFD1791E0E980870CF
:1043E000307800F0200040F0450007F8020D12A8D8
:1043F000C01B00F107081498007800B1012000EB01
:104400000A01019801EBE07105984144401A401EF1
:104410000590E00306D45B462146179A059800F004
:104420005DF805441498007818B15A4617999047DA
:104430006D1CE00324D55B462146179A059800F0D1
:104440004DF805441CE00498002807DBDDE9030172
:10445000884203DD0098405C179901E017993020ED
:104460005A469047049805F10105401C04900198B4
:10447000401E019004D12E205A46179990476D1C7A
:10448000BAF10001AAF1010ADDDC05E017F8010B21
:104490005A46179990476D1CB8F10001A8F1010820
:1044A000F4DC5B462146179A0598ABE62D00000028
:1044B0002B000000200000002DE9F04104460025FB
:1044C0001E461746880404D405E039462020B0472C
:1044D0006D1C641EF9D52846BDE8F0812DE9F04138
:1044E000044600251E469046C80301D5302700E04B
:1044F0002027880404D505E041463846B0476D1CA6
:10450000641EF9D52846BDE8F0814A68002A06D025
:104510000A68531C0B6010704868401E4860704762
:104520000D46044601F01EF9AAB2142321460A489A
:10453000FEF7F7F8094800231A461946006801F00B
:1045400061FA0120FEF7AEFF0220FEF7ABFF04493F
:104550000020C1F8A002FEE77C010020CC00002072
:10456000000042427CB5184E0546002417A11948A8
:1045700000F080F9641C142C03DD1F2116A0FFF746
:10458000CFFF1E21306801F035FC0028EED01AA1C3
:104590001B48FBF7CAFE0028E8D019480021083064
:1045A000FFF736FB174800EBC50080ED010A10EE5F
:1045B000100AFBF7CCFECDE900012A4612A11648ED
:1045C00000F058F900207CBDD800002064617461BF
:1045D0000D0A0000BC01002057616974696E6720F4
:1045E000666F72207265706C792066726F6D2066DE
:1045F0006C756F72210D0A00646174612856290080
:10460000184F0020AC040020464C55253032645F22
:1046100025362E34660D0A007C010020FCF788FF49
:10462000FEF714FEFEF7AEF9FEF76EF940483F497B
:10463000002401604FF4E131C0E901140C25C4608D
:10464000C0E904458461C461FDF73EFE08B172B65D
:10465000FEE737483749403001604FF49641C0E9E2
:104660000114C460C0E904458461C461FDF72CFEF7
:1046700008B172B6FEE72E482F49803001604FF432
:104680006141C0E90114C460C0E904458461C461AA
:10469000FDF71AFE08B172B6FEE7FEF715FAFEF74F
:1046A00049FA2749254808600846FCF701FC08B18B
:1046B00072B6FEE7FEF776FA2D20FCF7BAFF2C2043
:1046C000FCF7B7FF00F04EF803220021012001F0B3
:1046D000FDF81B4C0322103C0021A060012001F0DA
:1046E000F5F8E06003220021012001F0EFF8154900
:1046F000086020B100231A46194601F083F9124AD6
:104700000021124800F066F86060114A002111484B
:1047100000F060F810490E4A086000210F4800F0D0
:1047200059F80F49086000F037F8FEE7004C0040E8
:104730007C01002000500040004800400030024052
:1047400010000020CC00002074640008C92C000870
:1047500098640008712F00082C0000206D2E0008BE
:1047600030000020EFF3058068B9EFF310820949AB
:10477000086812B9EFF311820AB1022803D028B1F8
:104780004FF0FF3070476FF0050070470120086060
:10479000002070479400002010B5EFF3058070B939
:1047A000EFF310820A49086812B9EFF311820AB1D7
:1047B000022804D0012805D04FF0FF3010BD6FF063
:1047C000050010BD0220086000F088FF002010BD29
:1047D000940000202DE9FF410B464FF00005EFF358
:1047E0000581039599BBEFF3108111B9EFF31181A6
:1047F00019B11F490968022938D040B38026182111
:1048000000244AB3176807B13C4697691FB139467F
:104810007F1E382F02D21779FF0703D0002004B083
:10482000BDE8F081576907B1BE08D2F808C0BCF1F5
:10483000000F0DD0D5685C2D18D312693AB137B18D
:104840008DE806103246214601F0F7FB03900DE09B
:10485000D7685FB912694AB903AACDE90012B2B2AA
:10486000214601F0BDFB012800D003950398D6E74F
:10487000940000200FB44FF0FF312DE9F041134EAA
:10488000074608AD306801F0B5FA012819D140217A
:104890000F48FBF73FFD2B4640210D48079AFFF7D5
:1048A00095F9041E07DDA2B209493846FDF796FFC7
:1048B0000028F8D105E000231A461946306801F0B7
:1048C000A1F82046BDE8F0015DF814FBCC00002003
:1048D000404E00202DE9F041134C0F460546666915
:1048E0002068001D00F08CFC681C07D137B12168DE
:1048F000BDE8F0410D48091D00F0D2BC20683544E8
:10490000B5424560216805D2A068BDE8F041091DA7
:1049100000F0AEBC6068091D00F0AAFC206B854267
:1049200000D22563BDE8F081440000205C0A00202D
:104930002DE9F041054600F0BFFC2D4C2069401CDC
:10494000206120682B4F10B1E06930B32BE0256067
:104950002069012827D1002606EB860007EB80009E
:1049600000F078FC761C382EF6D3234800F072FC59
:104970002148143000F06EFC1F48283000F06AFC1B
:104980001D483C3000F066FC1B48503000F062FCD3
:10499000194860601430A06005E02068E96AC06AC8
:1049A000884200D82560E06A401CE0626864E86ADA
:1049B000A169884200D9A06100EB800007EB80006C
:1049C000291D00F06DFC00F097FCE06900280CD078
:1049D0002068E96AC06A884207D208494FF08050CF
:1049E0000860BFF34F8FBFF36F8FBDE8F081000009
:1049F00044000020AC0500200C0A002004ED00E07B
:104A000038B500F059FC104CA068C8B90F4800F048
:104A100021FC0E48143000F01DFC0C4820601430BE
:104A200060600A4B00202833009003F150021021EF
:104A30000A2000F06FFFA06010B105A100F0DAFCC1
:104A4000BDE8384000F058BC80000020700A00200B
:104A5000546D72510000000030B4026C0B46002A05
:104A60000BD0C1681144C1608468A14201D30168C0
:104A7000C16030BC1846FBF734BC30BC70472DE930
:104A8000F041856B174604460026026C82B1C7B11F
:104A9000E068FBF726FCE168206C091AE1602268F7
:104AA000914202D2A168081AE060022F16D017E0E6
:104AB0002068A8B9A06801F063FB06460020A0604A
:104AC0000EE06068FBF70DFC216C606808446060D4
:104AD000A168884204D32068606001E005B16D1EC2
:104AE0006D1CA5633046BDE8F08110B5044690F812
:104AF000590058B101280CD002280FD0502080F363
:104B00001188BFF34F8FBFF36F8FFEE7206B00F06C
:104B100007FC2046BDE8104000F002BC10BD0000BC
:104B200010484FF47051420706D0C01D0D4920F0C7
:104B30000700411AC1F570510B4A00230144C2E934
:104B400000030839103A21F0070111604B600B6037
:104B50000B1AC0E9001393604FF000405360D0601F
:104B60007047000040120020A8000020144E154C91
:104B7000A6F29C474FF08058DFF84C9012E000BF3F
:104B800000F09AFBF068C568281D00F039FB206929
:104B9000401E2061E068401EE06000F0ADFB28464A
:104BA000FFF7A3FFE0680028EAD138680128F9D9A7
:104BB000C9F80080BFF34F8FBFF36F8FF2E700009B
:104BC000480A00204400002004ED00E070B51D46B6
:104BD000049C51B1C4F80020C4E90F010121204612
:104BE00000F0CCFE84F84C5070BD2460F4E7000067
:104BF0002DE9F05F8846DDE90B9415468346910068
:104C00009A460A9EA522206BFBF77DFB6FF00301FD
:104C1000206B01EB8501084420F00707780707D0D7
:104C2000502080F31188BFF34F8FBFF36F8FFEE7E3
:104C30000025B8F1000F0FD05FF00000221818F81F
:104C4000001082F8341018F8001011B1401C102820
:104C5000F4D384F8435001E084F83450382E00D364
:104C60003726E662C4E91365201D00F0FEFA04F160
:104C7000180000F0FAFA2461C6F138006462A061FD
:104C8000656584F8585052465946384600F064FA33
:104C90002060B9F1000F01D0C9F80040BDE8F09FD5
:104CA00030B5114900E011460A688242FBD34B68D7
:104CB0005C18844203D14068184448600846436841
:104CC0001C18944209D1084C103C2468A24209D017
:104CD00052681A4442600A6812680260814200D039
:104CE000086030BD0460F9E7A800002070B500241A
:104CF00041600B4D0061914206D8D11A8269914200
:104D000006D2011D686807E09A4203D2994201D396
:104D1000012403E0011D286800F0AAFA204670BDB6
:104D20008000002010B5044600F0C6FAA06B28B140
:104D30005FF0000400F0E0FA204610BD0124F9E71E
:104D400030B589B03C4D6EE00498002806DADDE904
:104D50000601059A90470498002864DB069C606968
:104D600010B1201D00F04CFA03A800F0D7F802465D
:104D700004980A2857D2DFE800F00505052D334ACC
:104D800005052D3394F8280040F0010084F8280030
:104D90000599A069059B01442046FFF7A7FF68B36A
:104DA000216A2046884794F8280040073BD5002018
:104DB00000900598A169002342181946204601F089
:104DC00025FBD8B9502080F31188BFF34F8FBFF374
:104DD0006F8FFEE714F8280F20F00100207022E00A
:104DE00094F8280040F0010084F828000598A0619C
:104DF00028B1811813462046FFF778FF13E05020B2
:104E000080F31188BFF34F8FBFF36F8FFEE794F8E5
:104E10002800810703D4204600F082FA03E020F046
:104E2000010084F82800002204A9A86800F046FFC9
:104E3000002889D109B030BD800000202DE9FC4157
:104E40000F46054600F08EFC01A800F067F8044606
:104E5000019818B101F048FABDE8FC81254EAFB1C8
:104E600070680068D0B30027291B3A46B06800F08C
:104E7000D5FA01F039FA0028EED11F494FF08050E1
:104E80000860BFF34F8FBFF36F8FE5E7A542EBD804
:104E900001F02AFA30682746C068C468201D00F077
:104EA000AFF994F82800410719D5A0692B4641199C
:104EB0003A462046FFF71AFFA8B1002003460146F4
:104EC00000902A46204601F0A1FA60B9502080F3F4
:104ED0001188BFF34F8FBFF36F8FFEE707E020F01D
:104EE000010084F82800216A20468847B4E701279A
:104EF000BAE700008000002004ED00E006484168A9
:104F0000096829B14168C968C9684968016370477F
:104F10004FF0FF31FAE700004400002070B505466D
:104F200001F0C4F8064E04463069844203D200F012
:104F300009F8012000E0002028602046346170BD9F
:104F400080000020F8B5194D20E0C068C4680668EC
:104F5000201D00F055F9216A2046884794F8280062
:104F6000400713D5A0693044B04206D9246160607F
:104F7000211D286800F07CF908E000200346014666
:104F800000903246204601F041FA38B128680168A5
:104F90000029DAD16968C5E90010F8BD502080F316
:104FA0001188BFF34F8FBFF36F8FFEE780000020A3
:104FB00008484068401C4FF0500080F3118804D02E
:104FC000BFF34F8FBFF36F8FFEE7BFF34F8FBFF37A
:104FD0006F8FFEE7B0000020074C2068016841B1E8
:104FE000C0680021D0F80000FFF728FFFFF7A8FEF7
:104FF000F3E701210020F7E7800000202DE9F041D0
:10500000044600F059F994F9455004F1240609E0EA
:10501000606A48B1304601F02FF908B100F0DCFABF
:105020006D1E6DB2002DF3DC4FF0FF3684F8456045
:1050300000F062F900F040F994F9445004F11007CF
:1050400009E0206948B1384601F016F908B100F0CE
:10505000C3FA6D1E6DB2002DF3DC84F84460BDE828
:10506000F04100F049B900002DE9F0410546002764
:1050700000F078FB314E306808B9FFF751FDF06859
:1050800005424BD1C5B3083568070ED005F00700BF
:10509000C0F108000544680707D0502080F311884C
:1050A000BFF34F8FBFF36F8FFEE72DB3706885425C
:1050B00034D82248103001460C6801E020460C46E6
:1050C0006168A94202D221680029F7D131688C4277
:1050D00024D007682168016060680837411B1029E7
:1050E0000FD96019420708D0502080F31188BFF310
:1050F0004F8FBFF36F8FFEE710E041606560FFF7F1
:10510000CFFD61687068401A7060B268904200D24A
:10511000B060F06801430020C4E9000101F0E4F848
:10512000780707D0502080F31188BFF34F8FBFF36B
:105130006F8FFEE73846BDE8F08100009800002040
:105140000449086818B10868026D521C02650868B5
:10515000704700004400002010B5031F4FF080741A
:105160001C601B1F21F001011960191F044B0B600B
:1051700014390A60091F6FF0020244380A6010BD3A
:10518000B14F000870B56FF0160529460020FDF7F5
:105190003BFD4FF49676304600F062F9002420463D
:1051A000FFF7E0F900211720FDF72EFD304600F053
:1051B00057F9641C072CF2DB2046FFF7D3F9294688
:1051C0000020FDF721FD304600F04AF90824204672
:1051D000FFF7C8F900212846FDF716FD304600F01C
:1051E0003FF9641C0F2CF2DB2046FFF7BBF92E21A0
:1051F0000020FDF709FDBDE87040642000F030B9E3
:10520000D0E9013201699A60D0E901235A604A6805
:10521000824201D182684A60002202610868401E11
:105220000860086870470000034B036003F15C00EE
:105230000860802010607047880B0020044B0360DA
:1052400003F15C0008604FF480701060704700004C
:10525000E40D002000F108014FF0FF32C0E9011217
:10526000C160016100210160704700210161704748
:1052700030B50B685A1C02D000F1080202E0026946
:1052800004E02246546825689D42FAD953684B6071
:1052900099608A60516008610168491C016030BDF5
:1052A00042684A6093688B609368596091600861B6
:1052B0000168491C01607047502080F31188BFF3DA
:1052C0004F8FBFF36F8F0A494868401C4860012820
:1052D0000CD10848006810F0FF0F07D0502080F371
:1052E0001188BFF34F8FBFF36F8FFEE77047000049
:1052F000B000002004ED00E00849486828B1401ED5
:10530000486001D180F311887047502080F31188E4
:10531000BFF34F8FBFF36F8FFEE70000B000002098
:1053200070B5002827D0144DA0F108046168E86822
:10533000014207D1502080F31188BFF34F8FBFF394
:105340006F8FFEE722683AB1502080F31188BFF3D7
:105350004F8FBFF36F8FFEE78143616000F002FA69
:1053600060686968084468602046FFF799FCBDE8FA
:10537000704000F0B9BF70BD980000204FF0E020F1
:1053800000210161816105494FF47A720968B1FB1E
:10539000F2F1491E41610721016170474000002080
:1053A00010B5FAF757FF114910280ED300F1E0208D
:1053B00090F8F0030A78904207D2502080F31188C9
:1053C000BFF34F8FBFF36F8FFEE70948006889680E
:1053D00000F4E060884207D9502080F31188BFF3C1
:1053E0004F8FBFF36F8FFEE710BD0000B0000020AD
:1053F0000CED00E010B5084B002200BF53F832401E
:105400001CB1521C082AF9D310BD43F8321003EB2B
:10541000C201486010BD00006C05002070B5154643
:105420000E460446FFF748FF94F944100020491C3B
:1054300001D184F8440094F94510491C01D184F845
:105440004500FFF759FFA06B28B92A46314604F101
:10545000240000F0DFF82046BDE87040FFF7CEBD25
:1054600010B5020014D00F48806B38B1502080F383
:105470001188BFF34F8FBFF36F8FFEE700F072F913
:1054800000211046FFF726FA00F02EFF002807D172
:1054900005494FF080500860BFF34F8FBFF36F8F07
:1054A00010BD00004400002004ED00E070B50D4682
:1054B00004000BD095B11E4A906BB8B1502080F318
:1054C0001188BFF34F8FBFF36F8FFEE7502080F33B
:1054D0001188BFF34F8FBFF36F8FFEE7502080F32B
:1054E0001188BFF34F8FBFF36F8FFEE700F03AF9DB
:1054F000526923685919934204D98B420AD99142BF
:1055000002D807E08B42FAD9881A21600021FFF700
:10551000E1F900E0216000F0E7FE002807D105492D
:105520004FF080500860BFF34F8FBFF36F8F70BD97
:105530004400002004ED00E070B50546FFF7BCFE16
:105540001E4C05B92568281DFFF75AFEA86A18B138
:1055500005F11800FFF754FEE06A401CE062206885
:10556000854207D1291D1648FFF79AFEE068401CC6
:10557000E06007E02069401E20612846FFF7B5FA89
:10558000FFF7BCFCFFF7B8FEE069002814D02068E4
:10559000854211D1A06B38B1502080F31188BFF340
:1055A0004F8FBFF36F8FFEE706494FF080500860C2
:1055B000BFF34F8FBFF36F8F70BD0000440000201A
:1055C000480A002004ED00E002498A6A0260496945
:1055D0004160704744000020014901204862704743
:1055E0004400002010B50C4650B109490968183133
:1055F000FFF73EFE2046BDE810400121FFF76AB9E3
:10560000502080F31188BFF34F8FBFF36F8FFEE7F9
:105610004400002070B514460D4668B10A49096877
:105620001831FFF73DFE0CB14FF0FF3521462846FB
:10563000BDE87040FFF74EB9502080F31188BFF3EA
:105640004F8FBFF36F8FFEE74400002070B504005A
:105650003ED0226DA2B1E06C884200D30146E06AE0
:10566000884235D0012A33D11A4D2A6894420FD18D
:10567000502080F31188BFF34F8FBFF36F8FFEE789
:10568000502080F31188BFF34F8FBFF36F8FFEE779
:10569000E162A269002A02DBC1F13801A1610E4E6C
:1056A00000EB8000616906EB8000814210D1201D73
:1056B000FFF7A6FDE06AA969884200D9A86100EB5E
:1056C000800006EB8000211DBDE87040FFF7E8BDBB
:1056D00070BD000044000020AC05002030B587B04C
:1056E0000024039405AA04A903A80494FFF79CFDD1
:1056F000DDE903010094CDE90110002315A117484D
:10570000059A00F09AFC164D002868631FD000F03F
:105710004DFE012809D0401C19D1502080F311887A
:10572000BFF34F8FBFF36F8FFEE7502080F31188D8
:10573000BFF34F8FBFF36F8F4FF0FF30286301200F
:10574000E8616C6107B0BDE8304000F045B807B0D3
:1057500030BD000049444C45000000006D4B00087E
:10576000440000200248816B491C8163704700009F
:1057700044000020164810B5816B11B1012141622F
:1057800010BD002141628169124A01E0B9B1491E90
:1057900001EB810352F82330002BF7D001EB81039A
:1057A00002EB830202F1080453685B685360A34272
:1057B00001D15B685360DA680260816110BD5020DE
:1057C00080F31188BFF34F8FBFF36F8FFEE70000A8
:1057D00044000020AC0500201CB537480168374A5A
:1057E000914207D1502080F31188BFF34F8FBFF350
:1057F0006F8FFEE700683149491E884207D150206B
:1058000080F31188BFF34F8FBFF36F8FFEE72C49F2
:1058100008780190FF20087008788DF800009DF846
:1058200000009DF8002000F0F000904207D05020CA
:1058300080F31188BFF34F8FBFF36F8FFEE79DF8A2
:105840000000204B00F0500018700720986005E021
:105850009DF8002052008DF80020401E9DF8002089
:105860001206F5D49860032807D0502080F31188E1
:10587000BFF34F8FBFF36F8FFEE74FF44070986018
:10588000019808700C482030016841F470010160F3
:10589000016841F070410160FFF770FD0020586021
:1058A000FAF7A0FC0848016841F040410160FAF7AE
:1058B00085FC00201CBD000000ED00E071C20F411E
:1058C00000E400E0B000002034EF00E0F8B5174637
:1058D0000E46050014D0DEB105FB06F05030FFF790
:1058E000C3FB04000AD0002084F8460004F15002F3
:1058F0003B46314628460094FFF768F92046F8BD3C
:10590000502080F31188BFF34F8FBFF36F8FFEE7F6
:105910000020E3E738B5049D18B153B1CAB181B195
:1059200020E0502080F31188BFF34F8FBFF36F8FBB
:10593000FEE7502080F31188BFF34F8FBFF36F8FC6
:10594000FEE7502080F31188BFF34F8FBFF36F8FB6
:10595000FEE739B1502080F31188BFF34F8FBFF3BA
:105960006F8FFEE750241C46012384F846302B46F7
:105970000094FFF72BF9204638BD000070B50D46A6
:10598000040025D0FFF798FCD4E90F20216802FB22
:105990000011A1600021A163216861600A46D4E979
:1059A0000F01401E00FB0121E16021464FF0FF3056
:1059B00001F8440F487004F110008DB1FFF74AFC64
:1059C00004F12400FFF746FCFFF796FC012070BDB0
:1059D000502080F31188BFF34F8FBFF36F8FFEE726
:1059E00021690029F0D000F047FC0028ECD00449E0
:1059F0004FF080500860BFF34F8FBFF36F8FE3E726
:105A000004ED00E02DE9FF4782B01D468A464FF0C5
:105A10000008040003D0BAF1000F08D011E05020B4
:105A200080F31188BFF34F8FBFF36F8FFEE7206CB9
:105A300038B1502080F31188BFF34F8FBFF36F8FC1
:105A4000FEE7022D0AD1E06B012807D0502080F339
:105A50001188BFF34F8FBFF36F8FFEE700F018FB85
:105A60003F4F4FF000094FF0805648B9049838B1C5
:105A7000502080F31188BFF34F8FBFF36F8FFEE785
:105A8000FFF71AFCA06BE16B884207D3022D05D00B
:105A90000498D0B1B8F1000F1AD01EE02A46514642
:105AA0002046FEF7ECFF616A19B104F1240000F012
:105AB000E3FB20B13E60BFF34F8FBFF36F8FFFF763
:105AC0001BFC012006B0BDE8F087FFF715FC22E0C3
:105AD0006846FFF779FD4FF00108FFF70DFCFFF76F
